:100000000102758920758DE8758BE8D28E7598D0C0
:10001000D2ACD2AFC2997599FF7590FE30A01A305C
:10002000A11730A21430A3117590FD30A04D30A15E
:100030004A30A24730A3440119D29BC29975990155
:100040003099FD1200C9C29BC29985A0993099FDD3
:100050008580F011D2310290013F11F585F080C208
:10006000981200C9E599A2E09280A2E19281A2E2F1
:100070009282A2E392831200C001197580FFD29B85
:10008000C2997599023099FD1200C9C29BC2998527
:10009000A0993099FD8580F011D2310290014C1168
:1000A000F585F080C2981200C9E599A2E09284A279
:1000B000E19285A2E29286A2E392871200C0011922
:1000C0001200C9E5A0B4FFF8227E197FC8DFFEDE6A
:1000D000FA2231287438310C7438310C7438310CF0
:1000E0007438310C7408310C7401310C7406310C05
:1000F000740C310C227F00EF93B4100122311A0FDF
:1001000001F77480310C2274C0310C2275903F00CD
:10011000D297F58000C29731312275907F00D29737
:10012000F58000C297313A227E647FC8DFFEDEFA96
:10013000227E147FC8DFFEDEFA227E50DEFE224DD4
:10014000616368696E652030312020104D616368FD
:09015000696E6520303220201098
:00000001FF
