:100000000102758920758DE8758BE8D28E7598D0C0
:10001000D2ACD2AFC2997599FF7590FE30A01A305C
:10002000A11730A21430A3117590FD30A03E30A16D
:100030003B30A23830A3350119D29BC29975990182
:100040003099FD1200ABC29BC29985A0993099FDF1
:10005000C2981200ABE599A2E09280A2E19281A23F
:10006000E29282A2E392831200A201197580FFD26C
:100070009BC2997599023099FD1200ABC29BC2993F
:1000800085A0993099FDC2981200ABE599A2E09243
:1000900084A2E19285A2E29286A2E392871200A254
:1000A00001191200ABE5A0B4FFF8227E197FC8DF6A
:0400B000FEDEFA2254
:00000001FF
