:1000000075B07F30B33830B23A30B13C30B03E7565
:10001000B0BF30B33D30B23F30B14130B04375B0C6
:10002000DF30B34230B24430B14630B04875B0EF43
:1000300030B34730B24930B14B30B04D010075900C
:10004000FF01007590FE01007590FD01007590FCA8
:1000500001007590FB01007590FA01007590F9019F
:10006000007590F801007590F701007590F6010099
:100070007590F501007590F401007590F30100751D
:0E00800090F201007590F101007590F0010002
:00000001FF
