:100000001114113711579000AC114A115C9000B0D7
:10001000114A0112117D74381161743811617438FC
:1000200011617438116174081161740111617406F1
:100030001161740C116122744011617D189000945B
:100040007C00EC93116F0CDDF9227F00EF93B4106C
:100050000122116F0F014C748011612274C411616F
:100060002275B01F00D2B5F59000C2B51186227579
:10007000B09F00D2B5F59000C2B5118F227E647F8B
:10008000C8DFFEDEFA227E147FC8DFFEDEFA227EA3
:1000900050DEFE220000001C1F000000100C061F96
:1000A0001F060C101818181F1F0000000201001076
:0900B000414952504C414E4510EB
:00000001FF
