:100000001112114290007F11351147900087113570
:10001000011011687438114C7438114C7438114C3B
:100020007438114C7408114C7401114C7406114C45
:10003000740C114C227F00EF93B4100122115A0F5F
:1000400001377480114C2274C0114C2275B01F000E
:10005000D2B5F59000C2B511712275B09F00D2B52E
:10006000F59000C2B5117A227E647FC8DFFEDEFA09
:10007000227E147FC8DFFEDEFA227E50DEFE22489A
:10008000656C6C6F2021104920616D2061204C430C
:03009000442E10EB
:00000001FF
