:03000000020539BD
:10000B0002057190087BE493F518A3E493F519A30B
:10001B00E518B400081206BA12063180E9B40108DB
:10002B001206BA12063F80DEB402081206BA120696
:10003B004E80D3B403081206BA12065580C8B40416
:10004B00081206BA12065C80BDB405081206BA1275
:10005B00066580B2B4060512072A80AAB4070512FA
:10006B00066F80A2B4080512067B809AB4090512AC
:10007B0006878092B40A05120693808AB40B051288
:10008B0000BC8082B40C020111B40D02010EB40E3F
:10009B000512069D0111B40F051206A80111B4102B
:1000AB0006A2D592F20111B4110512028A011101B7
:1000BB000EE493F51AA3E493F51BA3E51954F0C4CE
:1000CB00B406030200DAB407030201A6020749E5EE
:1000DB00195407601B146030146042146054146090
:1000EB006614607814600314600302017C020191B2
:1000FB007850A2D5500B20500AA61A08A61B020155
:10010B000EC260A2D59250227852A2D5500820512F
:10011B0007A61A08A61BC261A2D59251227854A237
:10012B00D55008205207A61A08A61BC262A2D59268
:10013B0052227856A2D55008205307A61A08A61BA0
:10014B00C263A2D59253227858A2D55008205407E7
:10015B00A61A08A61BC264A2D5925422785AA2D51D
:10016B005008205507A61A08A61BC265A2D59255A2
:10017B0022785CA2D55008205607A61A08A61BC2E7
:10018B0066A2D5925622785EA2D55008205707A6B4
:10019B001A08A61BC267A2D5925722E519540F6005
:1001AB001E14603314604814605D14607214600692
:1001BB0014600614600602024202025A02027278AE
:1001CB0060A2D5500B20580AA61A08A61B0201DD07
:1001DB00C268A2D59258227862A2D5500B20590A38
:1001EB00A61A08A61B0201F5C269A2D5925922785C
:1001FB0064A2D5500B205A0AA61A08A61B02020DA0
:10020B00C26AA2D5925A227866A2D5500B205B0AFD
:10021B00A61A08A61B020225C26BA2D5925B2278F6
:10022B0068A2D5500B205C0AA61A08A61B02023D39
:10023B00C26CA2D5925C22786AA2D5500B205D0AC3
:10024B00A61A08A61B020255C26DA2D5925D227892
:10025B006CA2D5500B205E0AA61A08A61B02026DD3
:10026B00C26EA2D5925E22786EA2D5500B205F0A89
:10027B00A61A08A61B020285C26FA2D5925F22E4C2
:10028B0093F51AA3E493F51BA3E51954F0C4B40832
:10029B00030202A8B409030203E2020749E5195459
:1002AB000F602414604314606214600C14600C140F
:1002BB00600C14600C14600C02033802035A020326
:1002CB007C02039E0203C0783030F21120401520CF
:1002DB00301230D50F12051C92400202EFC24012B1
:1002EB0005339230A2D5923022783230F211204170
:1002FB001520311230D50F12051C9241020311C289
:10030B00411205339231A2D5923122783430F21159
:10031B0020421520321230D50F12051C92420203D7
:10032B0033C2421205339232A2D592322278363042
:10033B00F21120431520331230D50F12051C9243B6
:10034B00020355C2431205339233A2D5923322785E
:10035B003830F21120441520341230D50F12051C01
:10036B009244020377C2441205339234A2D59234DD
:10037B0022783A30F21120451520351230D50F1264
:10038B00051C9245020399C2451205339235A2D53D
:10039B00923522783C30F21120461520361230D59A
:1003AB000F12051C92460203BBC24612053392364E
:1003BB00A2D5923622783E30F21120471520371203
:1003CB0030D50F12051C92470203DDC247120533CD
:1003DB009237A2D5923722E519540F60241460434B
:1003EB0014606214600C14600C14600C14600C1418
:1003FB00600C0204720204940204B60204D80204D4
:10040B00FA784030F21120481520381230D50F12EF
:10041B00051C9248020429C2481205339238A2D512
:10042B00923822784230F21120491520391230D5FA
:10043B000F12051C924902044BC249120533923923
:10044B00A2D5923922784430F211204A15203A1263
:10045B0030D50F12051C924A02046DC24A120533A5
:10046B00923AA2D5923A22784630F211204B1520BF
:10047B003B1230D50F12051C924B02048FC24B124C
:10048B000533923BA2D5923B22784830F211204C97
:10049B0015203C1230D50F12051C924C0204B1C230
:1004AB004C120533923CA2D5923C22784A30F21181
:1004BB00204D15203D1230D50F12051C924D020414
:1004CB00D3C24D120533923DA2D5923D22784C30CA
:1004DB00F211204E15203E1230D50F12051C924EF4
:1004EB000204F5C24E120533923EA2D5923E2278FB
:1004FB004E30F211204F15203F1230D50F12051C34
:10050B00924F020517C24F120533923FA2D5923F6D
:10051B0022E62401F608E63400F618E6B51A0708B9
:10052B00E6B51B02D322C322760008760022758023
:10053B00FF7590FF75A0FF75B0FF758170E4787F34
:10054B007A70F618DAFC7525FF758CD8758AF075FC
:10055B008901D2AFD2A9D28CC0D053D0E743D008F7
:10056B007F0AD0D0010EC0D0C0E0C0F053D0E7431B
:10057B00D008758CD8758AF0DF207F0A7850A92AAD
:10058B00AB2C852C1F1205B2851F2C7860A92BABC9
:10059B002D852D1F1205B2851F2D12085B120866C3
:1005AB00D0F0D0E0D0D032C0F07A0075F000E91373
:1005BB00F94011EB03FB0808EA0AB407F1E5F04236
:1005CB001FD0F022EB13FB40EDB6004008B6003B0A
:1005DB0008EA540760151460161460171460181499
:1005EB00601914601A14601B020612D2F080C9D273
:1005FB00F180C5D2F280C1D2F380BDD2F480B9D2E2
:10060B00F580B5D2F680B1D2F780AD18E6C3940170
:10061B00F60850011618C2D5B6000708B600040834
:10062B0080AF08088092A2D5E52433F524A2F0828E
:10063B002892D522A2D5E52433F524A2F0B3822843
:10064B0092D522A2D582F092D522A2D5B0F092D526
:10065B0022A2F0822872D592D522A2F0B382287200
:10066B00D592D522A2D58220E52403F52492D5225A
:10067B00A2D57220E52403F52492D522A2D5E52537
:10068B0033F525A22892D522E52503F525A228923C
:10069B00D522A2D540030206A712072A22A2D540D3
:1006AB00030206B9C0D0C392D512072AD0D022E5D7
:1006BB001954F0C4601E14602114602414602714B4
:1006CB00602A14602D146031146034146037146088
:1006DB003A02074985201C02071C85211C02071CB6
:1006EB0085221C02071C85231C02071C852E1C025D
:1006FB00071C852F1C02071C00852C1C02071C8560
:10070B002D1C02071C85281C02071C85291C0207AF
:10071B001CE5195407FD0DE51C13DDFD92F022E5D8
:10072B001954F0C460181460151460141460551437
:10073B0060061460060207490207D302081701116D
:10074B00E5195407601614601814601A14601C1411
:10075B00601E14602014602214602422A2D5921013
:10076B0022A2D5921122A2D5921222A2D5921322A5
:10077B00A2D5921422A2D5921522A2D5921622A20C
:10078B00D5921722E5195407601614601814601AD5
:10079B0014601C14601E1460201460221460242248
:1007AB00A2D5921822A2D5921922A2D5921A22A2D0
:1007BB00D5921B22A2D5921C22A2D5921D22A2D584
:1007CB00921E22A2D5921F22E519540760161460BF
:1007DB001814601A14601C14601E1460201460221C
:1007EB0014602422A2D5927022A2D5927122A2D596
:1007FB00927222A2D5927322A2D5927422A2D59282
:10080B007522A2D5927622A2D5927722E5195407AA
:10081B00601614601814601A14601C14601E1460A7
:10082B002014602214602422A2D5927822A2D592A1
:10083B007922A2D5927A22A2D5927B22A2D5927C42
:10084B0022A2D5927D22A2D5927E22A2D5927F2280
:10085B00E590F4F520E5B0F4F52122E522F4F580DE
:10086B00E523F4F5A02243484F5552594F554E47B7
:0E087B00000004200B603200036006200D0D0B
:00000001FF
